:020000040800F2
:10000000B80D002029020008990D00081B0D0008FA
:10001000950D000897050008272200080000000041
:10002000000000000000000000000000491500086A
:100030001D06000800000000FF130008A1160008BC
:10004000430200084302000843020008430200087C
:10005000430200084302000843020008430200086C
:1000600043020008430200081F060008430200087C
:10007000430200084302000843020008430200084C
:10008000430200084302000843020008430200083C
:100090004302000843020008430200083F0600082C
:1000A000430200084302000843020008430200081C
:1000B000BD180008DD1B0008A11C00084302000851
:1000C00043020008430200084302000843020008FC
:1000D0004302000809200008430200084302000808
:1000E00043020008430200084302000843020008DC
:1000F00043020008430200084302000843020008CC
:1001000043020008430200084302000843020008BB
:1001100043020008430200084302000843020008AB
:10012000430200084302000843020008430200089B
:10013000430200084302000843020008430200088B
:10014000430200084302000843020008430200087B
:10015000430200084302000843020008430200086B
:10016000430200084302000843020008430200085B
:10017000430200084302000843020008430200084B
:10018000430200084302000800F002F800F03CF8C7
:100190000AA090E8000C82448344AAF10107DA45E2
:1001A00001D100F031F8AFF2090EBAE80F0013F0F8
:1001B000010F18BFFB1A43F001031847C03E0000AF
:1001C000E03E0000103A24BF78C878C1FAD8520740
:1001D00024BF30C830C144BF04680C6070470000C1
:1001E0000023002400250026103A28BF78C1FBD840
:1001F000520728BF30C148BF0B6070471FB503F0DE
:1002000092FA1FBD10B510BD00F046F81146FFF779
:10021000F5FF02F00FFB00F064F803B4FFF7F2FF04
:1002200003BC02F0B2F800000948804709480047C3
:10023000FEE7FEE7FEE7FEE7FEE7FEE7FEE7FEE796
:10024000FEE7FEE704480549054A064B70470000F3
:10025000A516000889010008B8070020B80D002085
:10026000B8090020B80900207047704770477047F0
:10027000704710B500F008F8006810BD10B50446CE
:1002800000F002F8046010BD0048704754070020D9
:1002900000487047540700207546FFF7F9FFAE4647
:1002A00005006946534620F00700854618B020B582
:1002B000FFF7C8FFBDE820404FF000064FF00007F1
:1002C0004FF000084FF0000B21F00701AC46ACE8FE
:1002D000C009ACE8C009ACE8C009ACE8C0098D466B
:1002E000704710B50446AFF300802046BDE81040CB
:1002F000FFF793BF21B1826842F00102826003E000
:10030000826822F001028260704700000021084AE2
:100310001168084A1140D0E900231A4383681A4340
:10032000C3681A431143044AC2F80413704700001B
:1003300004230140E030FCFF0020014000B58DB0F7
:100340000121042001F05CF80121084601F058F871
:100350000121080201F074F800F0E2FC03208DF89E
:1003600030000F200B9000208DF833000BA9364889
:1003700000F05AFC03208DF830000F200B90002075
:100380008DF833000BA9314800F04EFC0020099095
:1003900007904FF4803008904FF470600A9007A8DF
:1003A000FFF7B4FF0020019001208DF808008DF8C0
:1003B000090000200390059008208DF8180001A97D
:1003C000234800F05DF801212148FFF793FF072340
:1003D00001220D211E4800F07DF8072302220C2186
:1003E0001B4800F077F8072303220B21184800F080
:1003F00071F8072304220A21154800F06BF807233F
:1004000005220221124800F065F807230622032185
:100410000F4800F05FF807231A4600210C4800F04F
:1004200059F8072308220121094800F053F8084829
:1004300000F0ACF80121064800F017F8012104484B
:1004400000F008F80DB000BD0008024000000240B6
:100450000020014021B1826842F48072826003E092
:10046000826822F480728260704721B1826842F40F
:100470000072826003E0826822F40072826070473A
:1004800030B50246002000235068104C20400D7902
:100490000C6844EA05242043506090680C4C2040CE
:1004A000D1E903542C438D682C434D7944EA45042B
:1004B00020439060D06A20F470000C7D641EE4B28A
:1004C000234340EA0350D06230BD0000FFFEFFFC32
:1004D000FDF7FFC0F0B504460D4600200021092DB0
:1004E00011DDE068A5F10A0606EB4607072606FAC5
:1004F00007F18843A5F10A0606EB460603FA06F162
:100500000843E0600CE0206905EB4507072606FA82
:1005100007F1884305EB450603FA06F1084320611D
:10052000072A0FDA606B561E06EB86071F2606FAAF
:1005300007F18843561E06EB860605FA06F10843C6
:10054000606322E00D2A0FDA206BD61F06EB8607C8
:100550001F2606FA07F18843D61F06EB860605FA22
:1005600006F10843206310E0E06AA2F10D0606EBF5
:1005700086071F2606FA07F18843A2F10D0606EB4F
:10058000860605FA06F10843E062F0BD816841F095
:1005900080418160704700BFFEE721B1026842F0F0
:1005A0000102026003E0026822F00102026070476B
:1005B000014600200A6802F001020AB1012000E0B1
:1005C0000020704710B500220268134B1A40CC6817
:1005D0000B6823434C6923438C692343CC69234331
:1005E0000C6A23434C6A23438C6A23434C6B23439A
:1005F0008C6B23431A430260426922F00702D1E95F
:100600000B3423431A4342610B6943604B68836098
:100610008B68C36010BD00003F801CF0704710B5B0
:10062000142001F0D3FE102000F0FEF9012802D1C1
:10063000022000F08FF8102000F086F810BD10B5F1
:10064000202000F0F1F9012806D1032000F082F803
:10065000202000F079F810BD802000F0E5F9012895
:1006600005D100F077F8802000F06EF8F3E7142051
:1006700001F0ACFE4FF4807000F0D6F9012807D1EC
:10068000002000F067F84FF4807000F05DF8E2E7BA
:1006900000BFE0E70EB50121880300F0D1FE07217D
:1006A000012000F053FF0821012000F04FFF052139
:1006B000084600F04BFF0421022000F047FF102005
:1006C000009000208DF8040008208DF8050001201E
:1006D0008DF80600684600F0B3F9A02000900020D5
:1006E0008DF804000C208DF8050001208DF806001F
:1006F000684600F0A5F94FF48070009008208DF84E
:100700000500684600F09CF90A208DF808000020DA
:100710008DF8090002208DF80A0001208DF80B00E9
:1007200002A800F03BFB17208DF8080001208DF88F
:10073000090002208DF80A0001208DF80B0002A8A4
:1007400000F02CFB0EBD000001490860704700005E
:10075000143C014070B52DED048B044600F064FBA1
:10076000002C7AD0012C02D0022C77D128E14FF452
:1007700080519E4800F0C3FA0546012D60D19C4887
:100780000078E0BB9B48007888B99B48006802F07D
:1007900059FF41EC190B9FED990B53EC102B02F014
:1007A000D1FA41EC180B02F09BFA9349086091488A
:1007B0000078012823D19348007810B101281DD179
:1007C00009E08D4890ED000AF1EE040A30EE200AAF
:1007D00080ED000A12E08C48006802F033FF41EC23
:1007E000190B9FED8A0B53EC102B02F0ABFA41EC86
:1007F000180B02F075FA8449086000BF00BF7E48FC
:1008000090ED000ADFED830AB4EEE00AF1EE10FA93
:1008100003DB9FED800A80ED000A7B48006802F050
:1008200011FF41EC180B9FED7C0B53EC102B02F0E9
:10083000B7FC76D8B0EE000A734880ED000A70E08D
:100840006B480078A0BB6B480078A0B96A48006884
:1008500002F0F8FE41EC190B01E063E0C2E09FED0D
:10086000670B53EC102B02F003FE41EC180B02F067
:1008700037FA614908605F48007801282DD1614846
:10088000007810B1012827D113E05B48006802F01E
:10089000D9FE41EC190B9FED590B53EC102B02F0D4
:1008A000E7FD41EC180B02F01BFA5349086013E016
:1008B00013E05548006802F0C5FE41EC190B9FEDAE
:1008C000530B53EC102B02F0D3FD41EC180B02F04C
:1008D00007FA4D49086000BF00BF4748006802F0B2
:1008E000B1FE41EC180B9FED4E0B53EC102B02F0B8
:1008F0001DFB04D8B7EE000A3F4880ED000A4248CD
:10090000006802F09FFE41EC180B9FED3C0B53EC8E
:10091000102B02F00BFB04D8B6EE000A3A4880ED2B
:10092000000A5FE03348007848B93148007830B9B0
:1009300000203449087001202D4908703FE02D48FF
:10094000007888B92A48007801280DD12D48007810
:10095000401C2C4908700846007802282FDB002034
:100960000870234908702AE022480078012811D134
:100970001F48007870B923480078401C214908704E
:100980000846007802281ADB002008700120184968
:10099000087014E017480078012810D11448007836
:1009A00001280CD117480078401C164908700846E9
:1009B0000078032803DB002008700D49087011E05F
:1009C0000C480078401C0B49087000200D49087045
:1009D0000749087007480078022802DB0020054913
:1009E000087000BF00BFBDEC048B70BD0004024066
:1009F0007400002072000020600000200000000051
:100A00000000E03F730000206C0000209A99999943
:100A10009999B93F00000C4200000000000000401E
:100A2000000000000000F03F01460020034A126869
:100A30000A400AB1012000E000207047143C014048
:100A4000002123498279002A3AD00A4612680368B5
:100A50009A430B461A600A1D126803689A430B1DDD
:100A60001A60027911440A6803681A430A60184A36
:100A70000832126803689A43154B08331A601A1D2E
:100A8000126803689A43124B0C331A604279102A99
:100A90000ED11A1F126803681A430D4B08331A60EF
:100AA0001A1D126803681A43094B0C331A600DE0D3
:100AB0000749427911440A6803681A430A6005E04D
:100AC000027911440A6803689A430A60704700007B
:100AD000003C01401CB50121084600F091FC0121B9
:100AE000022000F08DFC0121042000F089FC01218E
:100AF000082000F085FC0121102000F081FC01207D
:100B00008DF8040002208DF8050000208DF8060005
:100B100002208DF807008002009069463E4800F0F0
:100B200083F84FF40050009069463B4800F07CF891
:100B30004FF4004000906946374800F075F84FF4D4
:100B4000805000906946344800F06EF84FF48040C1
:100B500000906946304800F067F80120009069462F
:100B60002D4800F061F80220009069462A4800F004
:100B70005BF8042000906946274800F055F80820EB
:100B800000906946244800F04FF810200090694614
:100B9000214800F049F88020009069461E4800F086
:100BA00043F84FF40070009069461C4800F03CF890
:100BB00000208DF8040002208DF8050001208DF83A
:100BC00006008DF80700802000906946134800F069
:100BD0002BF84FF4807000906946104800F024F81C
:100BE0002020009069460E4800F01EF8102000906A
:100BF00069460B4800F018F84FF4805000906946A1
:100C0000064800F011F84FF400400090694605488E
:100C100000F00AF81CBD0000000C02400004024075
:100C20000008024000100240F0B50A4600210023EF
:100C3000002400BF3DE0012505FA01F3156805EA2F
:100C400003049C4234D105684F000326BE40B543DF
:100C5000056015794E00B540066835430560157985
:100C6000012D02D01579022D16D185684F0003267B
:100C7000BE40B543856055794E00B5408668354322
:100C80008560456801268E40B54345604568967984
:100C90008E40B6B235434560C5684F000326BE405E
:100CA000B543C560D5794E00B540C6683543C560CB
:100CB000491C1029BFD3F0BDF0B5002300244D0717
:100CC000ED0E02FA05F3CE1000F1200555F826507E
:100CD0004E07F70E0F26BE40B543CF1000F1200699
:100CE00046F82750CE1000F1200555F8265045EA69
:100CF0000304CE1000F1200545F82640F0BD024661
:100D0000002013690B400BB1012000E00020704768
:100D10000AB1018300E04183704700BFFEE7000095
:100D200000B58FB00121880500F06AFB00BF1648AE
:100D3000FFF73EFC0028FAD10090144801901448B7
:100D400002900020039008200490002005904FF4AA
:100D500080600690400007908000089000010A9093
:100D60004012099000200B9001200C9000200D9063
:100D70000E9069460448FFF725FC01210248FFF761
:100D80000CFC0FB000BD0000106402404C2001407C
:100D90004005002000BFFEE77047000070B500214D
:100DA00000230F22C4781CB3174C246804F4E064B9
:100DB000C4F5E064C4F30721C1F10404E3B20A41BD
:100DC00044789C40E1B28478144021430C07210E02
:100DD0000E4C05786155047804F01F050124AC40E1
:100DE00005786D11AD0005F1E025C5F8004109E079
:100DF000047804F01F050124AC40054D06787611F7
:100E000045F8264070BD00000CED00E000E400E075
:100E100080E100E002490143024A1160704700008E
:100E20000000FA050CED00E000200CE0002106E0D7
:100E30000022064B03EBC0135A544A1CD1B280293E
:100E4000F6DB421CD0B20828F0DB7047940000208B
:100E50002DE9F04304460D4616461F46284638E065
:100E6000224631E0002A2DDB7F2A2BDC002829DBFB
:100E70003F2827DC4FEAE07C00EB5C7C4FEAEC0C7F
:100E8000DFF8588008EBCC1C1CF802C003464FEA80
:100E9000E07800EB58784FEAE808A0EBC8094FF07B
:100EA000010808FA09F82CEA080C01464FEAE07834
:100EB00000EB58784FEAE808DFF8209009EBC818F3
:100EC00008F802C0511C0AB2A1199142CADC411CA7
:100ED00008B2E9198142C3DCBDE8F0839400002028
:100EE0007CB5002406E0002500E06D1CB5F57A7F96
:100EF000FBD3641CB4F57A7FF5D301210C2000F0FC
:100F00007FFA01208DF8040002208DF805000020F2
:100F10008DF8060001208DF80700C0020090694698
:100F20001248FFF781FE4FF48050009069460F4849
:100F3000FFF77AFE4FF48060009069460B48FFF798
:100F400073FE4FF40070009069460948FFF76CFE8D
:100F5000002000F00BFA012000F014FA012000F04C
:100F600029FA012000F01AFA7CBD000000080240B6
:100F7000000C024010B5FFF7B3FFAE2000F026FAD8
:100F8000D52000F023FA802000F020FAA82000F0FD
:100F90001DFA3F2000F01AFAD32000F017FA0020C3
:100FA00000F014FA402000F011FAA12000F00EFA2F
:100FB000C82000F00BFADA2000F008FA122000F046
:100FC00005FA812000F002FACF2000F0FFF9D920C5
:100FD00000F0FCF9F12000F0F9F9DB2000F0F6F95F
:100FE000302000F0F3F9A42000F0F0F9A62000F082
:100FF000EDF98D2000F0EAF9142000F0E7F9AF20B8
:1010000000F0E4F9FFF710FF00F09CF910BD10B5F7
:101010000246012000E050430B1EA1F10101FAD16C
:1010200010BD70B50546002411E080212141294002
:1010300009B1012100E00021084600F0A3F90120D8
:1010400000F094F9002000F091F9601CC4B2082C63
:10105000EBDB70BD70B505460C4645F0B00000F006
:10106000B5F9102141EA141000F0B0F904F00F00B6
:1010700000F0ACF970BD0000F8B506460F46144606
:101080001D46082D0CD1A4F120000E4901EB0010E3
:101090001023082239460090304600F097F80FE000
:1010A000062D0DD1A4F1200000EB4000064901EB14
:1010B00040000823062239460090304600F086F8AA
:1010C000F8BD00003A3700082A3D00082DE9F04F2E
:1010D0002DED088B81B005468B46B0EE408AF0EED0
:1010E000608A16469A46129C9FED360B53EC102BE5
:1010F00051EC180B02F054F806D823462B2259461F
:101100002846FFF7B9FF0BE023462D225946284613
:10111000FFF7B2FF51EC180B01F0D6FD41EC180BB4
:1011200051EC180B01F0C2FE8046404601F0EBFE88
:1011300041EC190B53EC182B02F0C2F841EC180BE0
:1011400051460A20FFF763FF0746384601F0DBFEF1
:1011500041EC1B0B53EC182B01F024FF41EC1A0B54
:10116000B0EE4A0AF0EE6A0A01F062F8B0EE409A78
:10117000F0EE609A51EC190B01F098FE8146B9FB34
:10118000F7F08044291908B2334642465946009484
:1011900000F09AF8711C01FB045108B223462E227C
:1011A0005946FFF769FFB11C01FB045108B25346D1
:1011B0004A465946009400F087F801B0BDEC088B10
:1011C000BDE8F08F00000000000000002DE9FF4F97
:1011D00080460E469146DDF834B0002500244A468C
:1011E00031464046039BFFF733FE00BF5EE000251B
:1011F00058E008EB0500002852DB08EB05007F28CB
:101200004EDC3046F11706EB5171C9100FB2F117E1
:1012100006EB5171C910A6EBC10A002E05DA781E43
:1012200007B20AF108000FFA80FA3819002817DB14
:101230003819072814DC3819224901EBC01008EBD3
:101240000501405C04FB09511BF8011001FA0AF189
:10125000084339191B4A02EBC11108EB05028854F7
:101260003819401C00281BDB3819401C072817DCE4
:101270003819401C134901EBC01008EB0501405C14
:1012800004FB09511BF80110CAF10802114108437F
:101290003919491C0B4A02EBC11108EB05028854AD
:1012A000681CC5B24D45A4DB601CC4B20399481E3E
:1012B000C11700EB5171012202EBE101A14296DC62
:1012C000BDE8FF8F940000202DE9F04706468946CF
:1012D00017461D46DDF82080002417E0281B411E1C
:1012E0000A20FFF794FEB7FBF0F00A21B0FBF1F201
:1012F00001FB120000F1300A04FB086108B243460A
:1013000052464946FFF7B8FE601CC4B2AC42E5DB6A
:10131000BDE8F0872DE9F0410646884615461F4690
:10132000002409E02A5D04FB076108B23B46414600
:10133000FFF7A2FE601CC4B2285D0028F2D1BDE810
:10134000F081000010B500240BE000212046FFF7DB
:1013500081FE054901EBC410802100F040F8601CBB
:10136000C4B2082CF1DB10BD9400002010B5044677
:1013700022464FF480610248FFF7CAFC10BD00000E
:101380000008024010B5044622464FF4805102483E
:10139000FFF7BEFC10BD00000008024010B5044677
:1013A00022464FF400610248FFF7B2FC10BD000076
:1013B0000008024010B5044622464FF4007102486E
:1013C000FFF7A6FC10BD0000000C024010B504465B
:1013D0000020FFF7E3FF2046FFF723FE10BD70B5A6
:1013E00005460E460120FFF7D9FF002404E0285DE2
:1013F000FFF717FE601CC4B2B442F8DB70BD704743
:1014000029B1064A12680243044B1A6004E0034AF9
:1014100012688243014B1A60704700003038024066
:1014200029B1064A12680243044B1A6004E0034AD9
:1014300012688243014B1A60704700004038024036
:1014400029B1064A12680243044B1A6004E0034AB9
:1014500012688243014B1A60704700004438024012
:10146000F0B5002100220024022500260223324F7D
:101470003F6807F00C0121B1042905D0082937D1B4
:1014800005E02E4F076036E02D4F076033E02A4F0E
:101490003F1F3F68C7F38056274F3F1F3F6807F045
:1014A0003F036EB1264FB7FBF3F7DFF88CC0ACF10A
:1014B000040CDCF800C0CCF3881C07FB0CF40CE037
:1014C0001E4FB7FBF3F7DFF870C0ACF1040CDCF88B
:1014D00000C0CCF3881C07FB0CF4174F3F1F3F687C
:1014E000C7F301477F1C7D00B4FBF5F7076002E0FE
:1014F000124F076000BF00BF0F4F3F6807F0F001B9
:101500000909104F7A5C0768D74047600A4F3F6867
:1015100007F4E051890A0B4F7A5C4768D74087602F
:10152000054F3F6807F46041490B064F7A5C4768F6
:10153000D740C760F0BD0000083802400024F40026
:1015400000127A00820000207047000030B50022AF
:101550008B071C0F0F2303FA04F20B4B8C1053F86C
:1015600024309343084C8D1044F8253023468C10CA
:1015700053F824308C07240F00FA04F42343024C60
:101580008D1044F8253030BD083801400CB50020DE
:10159000019000903448006840F48030324908607F
:1015A00000BF3148006800F4003000900198401CF2
:1015B0000190009818B90198B0F5A04FF1D12A48D0
:1015C000006800F4003010B10120009001E000201C
:1015D00000900098012846D123484030006840F030
:1015E00080502149403108602048006840F4404064
:1015F0001E4908601C48083000681B490831086013
:101600000846006840F4004008600846006840F45E
:10161000A05008601648091F0860081F006840F0C5
:101620008070091F086000BF0F48006800F000705C
:101630000028F9D040F205700E4908600A480830C9
:10164000006820F003000849083108600846006877
:1016500040F00200086000BF03480830006800F056
:101660000C000828F8D10CBD003802400070004082
:1016700008544007003C0240042808D14FF0E02104
:10168000096941F004014FF0E022116107E04FF0D9
:10169000E021096921F004014FF0E0221161704757
:1016A0007047000010B51548006840F470001349F9
:1016B00008601348006840F00100114908600020EC
:1016C0000F49083108600E4800680E4908400C496F
:1016D00008600D48091D0860081F006820F480207C
:1016E000091F0860002006490C310860FFF74EFF13
:1016F0004FF0006001498039086010BD88ED00E0BE
:1017000000380240FFFFF6FE1030002410B500F054
:101710005DF800F001F810BD1CB501211020FFF7A5
:101720006FFE012208212848FFF7C6FA012209218D
:101730002548FFF7C1FA01220A212348FFF7BCFA26
:1017400001220B212048FFF7B7FA01220C211E4885
:10175000FFF7B2FA01220D211B48FFF7ADFA022074
:101760008DF804008DF8050000208DF8060001209A
:101770008DF807000002009069461348FFF754FAFD
:101780004FF40070009069460F48FFF74DFA4FF490
:101790008060009069460C48FFF746FA4FF40060FD
:1017A000009069460848FFF73FFA4FF480500090D8
:1017B00069460548FFF738FA4FF400500090694633
:1017C0000148FFF731FA1CBD0010024000B589B096
:1017D00001210846FFF734FE41F26800079000201F
:1017E000ADF81800ADF820002020ADF81A0006A9C9
:1017F000194800F0C7FB6020ADF804000120ADF8E7
:1018000006000420ADF808000020ADF81000ADF887
:101810001200ADF814004FF40070ADF8160000206F
:10182000039001A90C4800F0CBFA0020039001A915
:10183000094800F003FB0020039001A9064800F0CE
:101840004FFB0121044800F092FA0121024800F008
:1018500082FA09B000BD0000000001401FB501215F
:101860000846FFF7DDFD4FF4D26002900420ADF88A
:1018700004000020ADF80C00ADF8060001A94FF0FF
:10188000804000F07FFB0121880700F061FA01220F
:101890001146900700F08BFA1C208DF80000012003
:1018A0008DF801008DF802008DF803006846FFF7FF
:1018B00075FA0121880700F04EFA1FBD10B52DED15
:1018C000088B0121880700F061FA01287ED100F021
:1018D0001FFF91480088401C8F4908808F4890ED79
:1018E000000A8F48D0ED000A70EE600A8B4890ED38
:1018F000000A8B4890ED001A30EE411A894890EDAD
:10190000000A00EE810A80ED000A844890ED030A87
:101910008348D0ED000A70EE600A804890ED030A1B
:101920007F4890ED001A30EE411A7F4890ED000A92
:1019300000EE810A80ED000A784890ED050A7848AB
:10194000D0ED000A70EE600A744890ED050A744804
:1019500090ED001A30EE411A744890ED000A00EE46
:10196000810A80ED000A08460088C8287EDD6D489F
:10197000D0ED000A0846008800EE100AB8EE400AD2
:1019800080EE801A11EE104A204601F05BFE41EC19
:101990001B0BB0EE4B0AF0EE6B0A00F0B9FCB0EE98
:1019A00040AAF0EE60AA9FED620B53EC102B51ECB5
:1019B0001A0B01F0F7FA41EC190B9FED5F0B53EC9A
:1019C000102B01F055FD41EC180B00E09CE001F0FC
:1019D00087F95B4908609FED5B0A524880ED000A79
:1019E0000846006801F02EFE41EC180B9FED560BE7
:1019F00053EC102B01F0D4FB11D85148006801F0D2
:101A000021FE41EC190B9FED520B53EC102B01F012
:101A100099F941EC180B01F063F949490860424813
:101A2000D0ED000A3C48008800EE100AB8EE400AEB
:101A300080EE801A11EE104A204601F003FE41ECC0
:101A40001A0BB0EE4A0AF0EE6A0A00F061FCB0EE42
:101A5000409AF0EE609A9FED400B53EC102B51EC46
:101A6000190B01F09FFA41EC180B00E03AE001F08D
:101A700037F93B4908609FED330A2B4880ED000A97
:101A80002A48D0ED000A2448008800EE100AB8EE7B
:101A9000400A80EE801A11EE104A204601F0D2FD75
:101AA00041EC1A0BB0EE4A0AF0EE6A0A00F030FC84
:101AB000B0EE409AF0EE609A9FED270B53EC102B9E
:101AC00051EC190B01F06EFA41EC180B01F008F91A
:101AD000244908609FED1B0A144880ED000A00208D
:101AE0000D490880164890ED000A1F4800F0C2FF1B
:101AF0001B4890ED000A1D4800F0BCFF194890ED0E
:101B0000000A1B4800F0B6FF0121880700F020F909
:101B1000BDEC088B10BD0000060000205005002021
:101B20000800002054000020580000205C00002025
:101B3000C976BE9F1A2F3C40EC51B81E85EBB13FD1
:101B400048000020000000006666666666E64040C9
:101B5000666666666666E63F0000000000000040BC
:101B60004C00002050000020F0050020240600203A
:101B7000580600201FB501210220FFF751FC4EF24C
:101B80005F2002909020ADF804000020ADF80C001A
:101B9000ADF8060001A9104800F0F4F901210E4843
:101BA00000F0D6F8012211460B4800F000F91D2084
:101BB0008DF8000004208DF8010003208DF802004C
:101BC00001208DF803006846FFF7E8F8012102487C
:101BD00000F0C1F81FBD00000004004000B52DED6D
:101BE000028B81B00121134800F0D0F8012819D1EF
:101BF00000F06CFD00F02CFC00F0A2FC0E48006828
:101C000001F020FD41EC180B082004230122B0EE66
:101C1000480AF0EE680A302100900020FFF756FADB
:101C2000FFF790FB0121034800F092F801B0BDECF2
:101C3000028B00BD000400400C0000201FB50121F4
:101C40000420FFF7EDFB40F2432002909020ADF816
:101C500004000020ADF80C00ADF8060001A90F4803
:101C600000F090F901210D4800F072F801221146B0
:101C70000A4800F09CF81E208DF8000000208DF826
:101C800001008DF8020001208DF803006846FFF77F
:101C900085F80121014800F05EF81FBD00080040F2
:101CA00010B50121234800F071F801283DD12248E8
:101CB00090ED002A90ED000AF1EE401A1F4890EDD9
:101CC000001A1F48D0ED000A1E4890ED000A1E4879
:101CD00000F02CFE1948D0ED000A30EE200A80ED0D
:101CE000000A90ED000A1448D0ED000AB4EEE00AB4
:101CF000F1EE10FA04DB90ED000A104880ED000AC6
:101D00000E4890ED000A1148D0ED000AB4EEE00A4A
:101D1000F1EE10FA04D890ED000A084880ED000AB0
:101D2000064890ED000A00F05DFF0121014800F037
:101D30000FF810BD00080040280000200C00002013
:101D40004800002060000020700500202C000020CA
:101D5000CA430282704721B1028842F00102028028
:101D600004E002884FF6FE731A400280704731B1DA
:101D7000B0F8442042F40042A0F8442005E0B0F856
:101D80004420C2F30E02A0F84420704730B502464A
:101D9000002000230024158A05EA0103958905EA3D
:101DA000010413B10CB1012000E0002030BD1AB1D4
:101DB00083890B43838102E083898B43838170474E
:101DC00070B5002400220023058C4FF6FE763540C6
:101DD0000584028C8388048B4FF68F752C40B51ECA
:101DE0002C400D882C43751E2A408D892A434D882E
:101DF0002A43104DA84202D00F4DA84213D14FF6EE
:101E0000F7752A40CD892A434FF6FB752A408D8805
:101E10002A434FF6FF652B404FF6FF552B400D8AA6
:101E20002B434D8A2B43838004838D684563028452
:101E300070BD0000000001400004014070B50024A6
:101E400000220023058C4FF6EF7635400584028C86
:101E50008388048B48F6FF752C404FF6FF452C40D5
:101E60000D884FF6FF7606EA05252C434FF6DF7501
:101E70002A408D8906EA05152A434D8806EA05158C
:101E80002A43154DA84202D0144DA8421DD14FF649
:101E90007F752A40CD894FF6FF7606EA05152A435D
:101EA0004FF6BF752A408D8806EA05152A434FF67E
:101EB000FF352B404FF2FF752B400D8A06EA850552
:101EC0002B434D8A06EA85052B43838004838D6866
:101ED0008563028470BD00000000014000040140E1
:101EE00070B5002400220023058C4FF6FF663540B4
:101EF0000584028C8388848B4FF68F752C404FF6B7
:101F0000FC752C400D882C434FF6FF552A408D89D7
:101F10004FF6FF7606EA05252A434D8806EA052591
:101F20002A43154DA84202D0144DA8421DD14FF2AC
:101F3000FF752A40CD894FF6FF7606EA05252A432C
:101F40004FF6FF352A408D8806EA05252A434EF6CE
:101F5000FF752B404DF6FF752B400D8A06EA0515DF
:101F60002B434D8A06EA05152B43838084838D68B5
:101F7000C563028470BD0000000001400004014000
:101F80004163704700220288184B98420ED0184BCC
:101F900098420BD0B0F1804F08D0164B984205D034
:101FA000154B984202D0154B984204D14FF68F73CF
:101FB0001A404B881A43124B984207D0114B984253
:101FC00004D04FF6FF431A400B891A4302804B6836
:101FD000C3620B880385054B984202D0044B98429C
:101FE00001D18B7A03860123838270470000014070
:101FF000000401400004004000080040000C0040C4
:10200000001000400014004010B540F225511D485A
:1020100000F04AF810B31B4800F000F9C4B21A48A7
:10202000008800F40040C8B91748008800F48040D8
:1020300060B10A2C03D000201349088020E0124828
:10204000008840F400401049088019E00D2C06D1AA
:102050000D48008840F480400B49088010E00A4891
:102060000088C0F30D0009490C5407480088401C43
:102070000549088008460088C72801DD002008803F
:1020800010BD000000100140800000208C060020E0
:1020900021B1828942F40052828104E082894DF6A6
:1020A000FF731A408281704770B5024600240023F6
:1020B0000025002040F66A16B14200D100BFC1F3EE
:1020C000421501F01F03012606FA03F3012D02D188
:1020D0009689334006E0022D02D1168A334001E092
:1020E000968A33400C12012606FA04F4168834400E
:1020F00013B10CB1012000E0002070BDF0B5034623
:10210000002400260025002040F66A17B94200D1BD
:1021100000BF1846C1F3421401F01F06012707FA59
:1021200006F5012C01D10C3004E0022C01D1103055
:1021300000E014301AB107682F43076002E0076817
:10214000AF430760F0BD00002DE9FF4705460E468E
:102150000024A14600BFA046B08900B100BF2C8A70
:1021600024F44054F08804432C82AC8941F20C6082
:102170008443B08831890843718908430443AC81A2
:10218000AC8A24F44074B0890443AC826846FFF7FB
:1021900067F92048854202D01F48854202D1DDF808
:1021A0000C9001E0DDF80890A88900F4004040B1EF
:1021B00009EBC90000EB091031684900B0FBF1F7E9
:1021C00007E009EBC90000EB091031688900B0FB9A
:1021D000F1F76420B7FBF0F004012009642101FB52
:1021E0001078A88900F4004040B1322000EBC8000C
:1021F000B0FBF1F000F00700044308E0322000EBF0
:1022000008106421B0FBF1F000F00F0004432C81B2
:10221000BDE8FF8700100140001401400146888896
:10222000C0F30800704700BFFEE700000000000098
:1022300010B52DED020B2DED088B84B09DED0C0B30
:1022400051EC100B00F0E2FF41EC180B9DED0C0B74
:1022500053EC182B51EC100B01F00AF941EC190B5F
:102260000D989FED290B10F0004F53EC102B51EC03
:10227000190B9FED21AB9FED22BB0ED000F056FE57
:102280000ED953EC1B2B51EC190B00F089FF1CD21B
:1022900014E000BF41EC180B17E000F047FE06D237
:1022A00053EC1A2B51EC180B01F0E2F8F2E753EC67
:1022B0001B2B51EC190B00F073FF06D853EC1A2BB3
:1022C00051EC180B00F03EFDE4E78DED028B9DED27
:1022D0000C0B18EE901A10EE900A8DED000B61F3C6
:1022E0001E0003909DED020B04B0BDEC088B02B004
:1022F00010BD000000000000000000000000F03FE2
:10230000000000000000E03F000000000000E0BF0F
:1023100000B52DED048BB0EE409AF0EE609A83B0DC
:1023200051EC190B00F0D8FF41EC180B18EE100A15
:1023300018EE901A8DED008B002818BF012008437D
:1023400020F00040C0F17F6000F1E040C00F14D0E9
:1023500019EE101A19EE900A8DED009B002918BF96
:102360000121084320F00040C0F17F6000F1E0400F
:10237000C00F04BF0120FDF781FFB0EE480A03B093
:10238000F0EE680ABDEC048B00BD00BF7047000092
:1023900010B504466FF00400FFF76EF9E11704EB87
:1023A0005171C1F3C701074A11701046007800EB64
:1023B0004001C1EBC0104FF6FF7101EAC0000249B5
:1023C000088010BD760000207800002070B504461B
:1023D0004FF4077094FBF0F0C6B24FF4077094FB13
:1023E000F0F100FB114085B205E04FF4077000F0FA
:1023F00009F8701EC6B2002EF7D115B1284600F0BC
:1024000001F870BD0146114A12884A434FF0E0239B
:102410005A6100229A611A46126942F001021A6159
:1024200000BF4FF0E022106900F001021AB100F481
:102430008032002AF5D04FF0E022126922F001022A
:102440004FF0E0231A6100229A6170477800002063
:1024500010B52848007848B92748007830B90823D3
:1024600026A210210020FEF755FF41E02148007808
:1024700080B92148007801280CD1082321A210211D
:102480000020FEF747FF082321A220210020FEF7AD
:1024900041FF2DE01748007801280FD11648007839
:1024A00060B9082315A210210020FEF733FF08238E
:1024B0001AA220210020FEF72DFF19E00D48007818
:1024C000012815D10C480078012811D108230DA24C
:1024D00010210020FEF71EFF082313A22021002058
:1024E000FEF718FF082313A230210020FEF712FF89
:1024F00010BD00007200002074000020556F207392
:1025000065743A00556F207265616C3A00000000F6
:10251000496F207265616C3A000000004B496F20E2
:102520007365743A00000000496F31207265616C78
:102530003A000000496F32207265616C3A00000079
:1025400000B52DED028B81B059480078A8B95948E3
:10255000007890B95848006801F074F841EC180B05
:10256000082002231A46B0EE480AF0EE680A10214D
:1025700000903C20FEF7AAFD95E04D48007840BB56
:102580004C480078012824D14C48006801F05AF8E2
:1025900041EC180B082002231A46B0EE480AF0EE70
:1025A000680A102100903C20FEF790FD4448006826
:1025B00001F048F841EC180B082002231A46B0EE4F
:1025C000480AF0EE680A202100903C20FEF77EFDCC
:1025D00069E037480078012827D13648007820BBC9
:1025E0003548006801F02EF841EC180B0820022352
:1025F0001A46B0EE480AF0EE680A102100903C201E
:10260000FEF764FD2F48006801F01CF841EC180B40
:10261000082002231A46B0EE480AF0EE680A20218C
:1026200000903C20FEF752FD3DE021480078012853
:1026300039D120480078012835D12048006801F0C0
:1026400001F841EC180B082002231A46B0EE480AA4
:10265000F0EE680A102100903C20FEF737FD184884
:10266000006800F0EFFF41EC180B082002231A4627
:10267000B0EE480AF0EE680A202100903C20FEF7F8
:1026800025FD1148006800F0DDFF41EC180B082023
:1026900002231A46B0EE480AF0EE680A3021009094
:1026A0003C20FEF713FD01B0BDEC028B00BD000025
:1026B000720000207400002060000020480000200C
:1026C0004C0000206C0000205000002010B508488D
:1026D000007830B9082307A200210846FEF71AFE49
:1026E00005E0082306A200210846FEF713FE10BDF0
:1026F0007200002053696E676C654D6F6465000061
:10270000506172616C6C656C4D6F64650000000017
:102710004448008800EE100AB8EE400ADFED420A95
:1027200020EE200ADFED410A80EE201A404880EDBD
:10273000001A3C48408800EE100AB8EE400ADFED6F
:102740003A0A20EE200ADFED390A80EE201A3848D6
:1027500080ED011A3348808800EE100AB8EE400A76
:10276000DFED310A20EE200ADFED300A80EE201A7C
:102770002F4880ED021A2B48C08800EE100AB8EEF0
:10278000400ADFED290A20EE200ADFED280A80EE5C
:10279000201A274880ED031A2248008900EE100A0B
:1027A000B8EE400ADFED200A20EE200ADFED1F0A16
:1027B00080EE201A1E4880ED041A1A48408900EE67
:1027C000100AB8EE400ADFED180A20EE200ADFED0D
:1027D000170A80EE201A164880ED051A11488089E4
:1027E00000EE100AB8EE400ADFED0F0A20EE200AD4
:1027F000DFED0E0A80EE201A0D4880ED061A09481A
:10280000C08900EE100AB8EE400ADFED070A20EE9C
:10281000200ADFED060A80EE201A054880ED071A2F
:1028200070470000400500203333534000F07F45DF
:10283000500500209FED251ADFED250A9FED250AA2
:10284000254800F055F89FED211ADFED200A9FED95
:102850001F0A224800F04CF89FED1C1ADFED1B0AFE
:102860009FED1A0A1E4800F043F89FED181ADFED9D
:10287000170A9FED160A1B4800F03AF84FF4A060C3
:10288000FEF7C8FAA820FFF783FD4FF4E13000F00F
:10289000C5F9FEF76FFBFEF71DF9FDF7FBFEFFF72D
:1028A000CDF9FFF767F9FEF731FFFEF7D7FFFDF728
:1028B00045FDDFED070A9FED0C0A0C4800F00FF90B
:1028C0001420FFF783FD00BFFEE7000000000000BA
:1028D00017B7D1380AD7233C700500209005002097
:1028E000B0050020D005002063149D43F0050020B2
:1028F000DFED0D1AC0ED001ADFED0B1AC0ED011A65
:10290000DFED091AC0ED021ADFED071AC0ED031A58
:10291000DFED051AC0ED041A80ED050AC0ED060AC8
:1029200080ED071A704700000000000010B52DED83
:10293000088B0446B0EE409AF0EE609AF0EE418AC1
:10294000B0EE61AAF0EE42AA84ED009AC4ED019ABD
:1029500094ED000AD4ED010A30EE600A84ED020A1B
:1029600094ED020AB5EEC00AF1EE10FA0FDB94ED19
:10297000020A10EE101A084600F064FE41EC1B0B30
:102980009FED370B53EC102B00F0D0FA16D994EDD5
:10299000020AB5EEC00AF1EE10FA17D894ED020A59
:1029A00010EE101A084600F04DFE41EC1B0B9FED97
:1029B0002E0B53EC102B00F0F3FB07D89FED2C0AE5
:1029C00084ED020A9FED2A0A84ED030A94ED020ABF
:1029D000D4ED030A30EE600AD4ED050A20EE200A99
:1029E000D4ED060A94ED021A00EE810AD4ED020A33
:1029F00094ED031AF0EE001A41EEC10A94ED041AA8
:102A000070EE810A94ED071AB0EE408A01EE208A3A
:102A100038EE880AB4EEEA0AF1EE10FA06DA38EE79
:102A2000880AB4EECA0AF1EE10FA0BD894ED020A45
:102A3000D4ED030A30EE600AD4ED050A20EE200A38
:102A4000B0EE408A94ED030A84ED040A94ED020A84
:102A500084ED030AB0EE480ABDEC088B10BD0000FF
:102A60007B14AE47E17A943F7B14AE47E17A94BF82
:102A700000000000F0EE400A90ED040A80ED050A27
:102A800090ED030A80ED040AC0ED030A90ED010AFF
:102A900080ED020A90ED000A80ED010A90ED080A2F
:102AA00090ED051A20EE010A90ED091AD0ED031AF7
:102AB00001EE210A90ED0A1AD0ED021A01EE610A28
:102AC00090ED0B1AD0ED011A01EE610A90ED0C1A8F
:102AD000C0EE011AC0ED001A90ED000A704780EDBB
:102AE000070AC0ED060A90ED071AF9EE001A21EE6A
:102AF000211AD0ED061A21EE211A80ED081A90ED68
:102B0000071AF1EE001A21EE211AD0ED061A21EE75
:102B1000211A80ED091A90ED071A21EE011AD0ED65
:102B2000061A21EE211AD0ED061A21EE211AD0ED57
:102B3000071AB1EE002A61EE821A90ED062A01EE24
:102B4000C21AF1EE001A31EE211A80ED0A1A90ED48
:102B5000071AF0EE001A21EE211AD0ED071A21EE25
:102B6000211AD0ED061A61EE211A90ED062AB2EE76
:102B7000001A11EE821A80ED0B1A90ED071A21EE61
:102B8000011AD0ED061A21EE211AD0ED061A21EE17
:102B9000211AD0ED071AB1EE002A61EE821A90EDEB
:102BA000062A01EE821AF1EE001A31EE211A80EDAA
:102BB0000C1AB7EE001A80ED051AB7EE001A80ED78
:102BC000041AB7EE001A80ED031AB7EE001A80ED72
:102BD000001AB7EE001A80ED011AB7EE001A80ED68
:102BE000021A704710B52DED028BB0EE408AB7EE99
:102BF000000A30EE480ADFED070A20EE200ABCEE9C
:102C0000C00A10EE101A0448FFF7BAF9BDEC028BA7
:102C100010BD0000004083450000014010B588B0A1
:102C2000044601210846FEF7EBFB01211020FEF7C8
:102C300007FC072209212248FEF73EF807220A2155
:102C40001F48FEF739F84FF4C060069002208DF857
:102C50001C008DF81D0000208DF81E0001208DF84D
:102C60001F0006A91648FDF7DFFF02940020ADF80B
:102C70000C00ADF80E00ADF81000ADF814000C20FB
:102C8000ADF8120002A90F48FFF75EFA01210D48C6
:102C9000FFF7FEF9012240F225510A48FFF72EFA0C
:102CA00025208DF8040003208DF805008DF806001E
:102CB00001208DF8070001A8FEF770F808B010BDDC
:102CC000000002400010014081F00041704780F098
:102CD0000040704721F00041704720F000407047ED
:102CE00021F00042A2F16052B2F5801F01F00043D2
:102CF00028BFD2F17F6C0BD95FEA001C43EAC20205
:102D000042EB507018BF704728BF20F00100704799
:102D1000B2F5801FBCBF184670474FEA410C1CF546
:102D2000001F02D2084600F003BD70B500F0E4F9C0
:102D300000000089FFF7F6BF4FF00040A0F58000CB
:102D40007047000010B591EA030F48BF83F00043BD
:102D500000F19683841A71EB030C05D2121943EB30
:102D60000C03001B61EB0C01DFF824E14FEA115466
:102D7000A4EB135C1EEA430F18BF9EEA445F73D0B6
:102D800023EA0E03DCF1200E21EA045143F4801300
:102D900032D322FA0CFE10EB0E0023FA0CFE41EBAC
:102DA0000E01CCF1200E03FA0EFE10EB0E0051F1D5
:102DB0000001B1F5801FCCF1200E32D201EB04519D
:102DC00012FA0EF2BDE8104058BF7047401C38BFE1
:102DD0005FEA420218BF7047002814BF20F00100CC
:102DE00041F100014FEA410313F5001F38BF70475E
:102DF000A1F1C04100F0CEB9012A43EB0302ACF1CE
:102E0000200CDCF11F0E32BF4FF0000E23FA0CF342
:102E100010EB030041EB0451B4EB115FD0D0A1EBF8
:102E2000045101F5801149085FEA300001EB0451BB
:102E30000ED350F1000038BF12FA0EFE08D1BDE8E3
:102E40001040C9E7401C38BF5FEA4202CAD1C3E75D
:102E5000BDE810404FEA410313F5001F38BF70472B
:102E6000A1F1C04100F096B99EEA445F08D011EA92
:102E70005E0FBDE8104004BF01F000410020704724
:102E8000BDE8104070B500F037F900BF64FBBE3EEE
:102E90000000E0FF491058BFC1F140415B1058BF2E
:102EA000C3F140438B42EFF3008070474FEA115368
:102EB000A3F58063D3F11E03A8BFD3F1200C08DB78
:102EC0004FF0004242EAC12252EA505232FA03F075
:102ED000704709420BD4102BC4BF0020704703F584
:102EE000787CBCF1FF3F05D04FF0FF3070474FF0CA
:102EF0000000704770B500F0FFF800BF49922480D1
:102F000000207047F0E7B0FA80F310FA03F10AD01E
:102F1000C3F11D0303F580634FEA41504FEA0352AA
:102F200002EBD12170474FF00000704751EA030CCB
:102F300017D41CF5801F58BFBCF5801F00F1068018
:102F4000994218BF704708BF9042704707D711F5E4
:102F5000801F58BF13F5801F19D4994270478942CA
:102F600070471CF5801F08D5BCF5801FF7D58B4234
:102F700018BF704708BF824270474FF4001C1CEB1B
:102F8000410F38BF1CEB430F01D28B42704770B525
:102F900000F0B2F8922449004FF000514FF08053F6
:102FA000FFF778BFDFF848C170B51CEA111E1EBFDD
:102FB0001CEA13159EEA0C0F95EA0C0F00F06F80C7
:102FC00081EA030423EA4C134EEAD47E21EA4C1131
:102FD00041F4801143F48013AE44A1FB024CA0FBEA
:102FE0000365AEF17F7E361955EB0C05A1FB034C52
:102FF0004CF10003A0FB021C16EB0C06654153F1DB
:103000000003094218BF46F0010613F4007F0BD1FC
:103010004FEA03314FEA0530340341EA155140EAE3
:1030200016506FF003020AE04FEAC3214FEAC520B1
:10303000F40241EA555140EA56506FF0020202EBA9
:103040002E4201EB025585EACE710AD05FEA440CAC
:1030500018BF24F0004450F1000041F1000120EAC3
:10306000D47040F2FE7C624500D270BDA84214BF0D
:103070004FF080444FF04044002E08BF0024BEF1C2
:10308000806FA8BFA1F1C041BDE8704080F282808E
:103090004FF0000001F1C04101F0004170479EEA8D
:1030A0000C0F0CEA131518BF95EA0C0F06D04FF061
:1030B000000081EA030E0EF0004170BD00F01CF824
:1030C0008900013E00F007B800F009B84FEA430C50
:1030D0005FEA5C5C08D081EA030100F05BB84FEA6C
:1030E000410C5FEA5C5CF6D14FF00000014970478B
:1030F0000000FF070000F87F0EF1020E2EF0030E15
:103100005EF8046B364205D4012A43EB030515F53E
:10311000001F12D8012841EB010C1CF5001F0CD830
:103120000ED14FEAD17C15F5001F0CEB4C0C0CF1C5
:10313000020C08BF4CEBD37C04E04FF0080C01E01C
:103140004FEAD37C0CEB4C0526FA05F606F0070691
:10315000B6F1040C06D20EEB860CBDE870404CF0C4
:10316000010C6047DFE80CF0090B02024FF0004150
:103170004FF00000A1F5002170BD1946104601284E
:1031800051EB010418BFD4F5001484BF002001F0F6
:10319000004170BD0808A0F500114FEA31017047E9
:1031A00053EA010C17D41CF5801F58BFBCF5801FD3
:1031B00000F106808B4218BF704708BF82427047FB
:1031C00007D713F5801F58BF11F5801F19D48B4204
:1031D00070479B4270471CF5801F08D5BCF5801FC7
:1031E000F7D5994218BF704708BF904270474FF417
:1031F000001C1CEB430F38BF1CEB410F01D299425E
:1032000070470FB40CBC03BCFFF7C1BE5FEA410CB2
:103210005FEA5C5CACF580635B1C39D4D3F13402AB
:1032200040F34580B2F1200314DA4FF0010C0CFAA0
:1032300002FCACF101030340B3EB5C0220EA0300A3
:1032400008BF10EA0C0F98BF704710EB0C0041F15B
:10325000000170470AD0C3F1200201FA02FC0128E4
:1032600021FA03F101FA03F14CF100004FF0010CD7
:103270000CFA03FCACF10103B0F1004F21EA0301A9
:1032800008BF11EA0C0F4FF0000088BF614470477F
:10329000B3F1FF3F28BF50EAC12C01F000414FF0CD
:1032A000000084BF41F07C5141F470017047B3F5D8
:1032B000806FB8BF704770B5FFF71EFF40DBB6BE2A
:1032C00091EA030F10B581F000413FF543AD83F063
:1032D000004300F0D5B800002DE9F04101F5801C55
:1032E000BCF5001FC0F2A9804FEA115C21EA0C5125
:1032F0000CF1FD0C41F480115FEA5C0C0CF5C07C14
:1033000001D34000494130A4890241EA905187022B
:103310008E0E0A0CA45D04FB04F602FB06F6C6F151
:103320004046A4FB0662F60D46EA422606FB06F47A
:10333000A4FB01235242C3F1404338BF5B1EA6FBEE
:1033400002420024E6FB0324D20B42EA4446A6FBD9
:103350000623A1FB02E2A3FB07E4E3FB6142644214
:10336000C2F1404E38BFAEF1010EA6FB04234FF070
:103370000002E6FB0E32A2FB03463400E2FB62646D
:10338000A1FB06E6A4FB07E8E4FB61687642C8F10E
:10339000405838BFA8F10108A2FB06E4A3FB08E5EA
:1033A000E2FB6854A1FB05E6A7FB04E8E1FB6486A9
:1033B00018F1200556F10006A809A8F11B08B1096B
:1033C00008F03F08B8F10A0F40EA86601CD901EB0B
:1033D0000C51BDE8F08100BFFCF5EEE8E2DDD8D38A
:1033E000CFCBC7C3C0BDB9B6B4B1AEACA9A7A5A376
:1033F000A19F9D9B9A9896959392908F8D8C8B8987
:103400008887868584838281A0FB006800FB01F2A7
:1034100008EB4208B8EB872807D5341858EB0104AD
:10342000D5D5401C51F10001D1E7341A78EB0104E5
:10343000CDD4401E71F10001C9E75FEA4C0C5FEA90
:103440009C5C0DD105D34FF0000001F00041BDE8B8
:10345000F081BDE8F04170B5FFF74EFE6DDBFFBEB9
:10346000BDE8F0414FF00000004970470000F87FD0
:1034700010B591EA030F48BF83F000433FF56AACF3
:10348000841A71EB030C07D212198CF0004C43EB39
:103490000C03001B61EB0C01DFF8A4E14FEA1154AF
:1034A000A4EB135C1EEA430F18BF9EEA445F00F0D2
:1034B000B08023EA6E03524221EA0451C3EB6E034B
:1034C00038BF5B1EDCF1200E25D322FA0CFE10EB78
:1034D0000E0043FA0CFE41EB0E01CCF1200E03FA74
:1034E0000EFE10EB0E0051F10001CCF1200E29D49C
:1034F00012FA0EF201EB0451BDE8104058BF7047BC
:10350000401C1CBFB2F1004F704700280CBF491C83
:1035100020F00100704712EB020E43EB030218BFCC
:103520004FF0010E4EEA4202ACF1200CDCF11E0E0F
:1035300054D943FA0CFE10EB0E0051F1FF31CCF1DF
:103540001E0ED5D50EF1010E12FA0EFE404141EBD2
:10355000010101EB445C5FEA5C5C10D910EBDE70AA
:1035600001EB045138BFBEF1004FBDE8104018BF59
:10357000704700280CBF491C20F00100704730D272
:103580004FEAD42C11F5001124F400641BD0B1FAD9
:1035900081F20B3AA41AA41ED2F12003914030FA12
:1035A00003F31943904001EBCC71002C01EB045163
:1035B000BDE81040A8BF704701F1C0414FF00000C6
:1035C00001F000417047B0FA80F310FA03F100D126
:1035D00010BDE41A173C4805C90AE4E701EB0451A1
:1035E00010BD491001EB0451BDE810404FEA300016
:1035F00002E04FF0000170474A0008BF0042F8D0D7
:10360000B2F5001F28BF704701F000414FF00000E5
:1036100070479EEA445F07D011EA5E0FBDE8104094
:1036200004BF002100207047BDE8104070B5FFF7CF
:1036300063FD00BF40DFF63E83F000411046704757
:103640000000E0FF43004FEAD30C4FEA3C0C43403C
:103650001FBF40070CF1605113F0FE4F70471CF084
:10366000006F03D100200CF0004170470CF00043C4
:1036700043EA507010B540EACC0000F00EF800BFED
:10368000000000924FEA0001FFF784BD4FF00041B7
:103690004FF00000A1F5002170470EF1020E2EF050
:1036A000030E5EF8044B244204D44FEA4102B2F107
:1036B0007F4F11D84FEA4003B3F17F4F0CD80ED1A2
:1036C0004FEAD07CB2F17F4F0CEB4C0C0CF1020CAA
:1036D00008BF4CEBD17C04E04FF0080C01E04FEA4E
:1036E000D17C0CEB4C0324FA03F404F00704B4F18E
:1036F000040C06D20EEB840CBDE810404CF0010C1B
:103700006047DFE80CF0070802024FF00040A0F528
:10371000800010BD0846420018BFD2F1807288BFF9
:1037200000F0004010BD4FF04070E1EE100A70470D
:10373000FF2141EAD050C0057047000000000000A2
:1037400000000000000000000000000000F8000081
:103750000000000000333000000000160E00160EBE
:103760000000000000000000000040C07840C07869
:103770004000043F04043F040400007088FC08304B
:103780000000001820FF211E0000F008F000E018E3
:10379000000000211C031E211E0000F0088870009C
:1037A00000001E21232419272110000000160E00FE
:1037B00000000000000000000000000000E018040D
:1037C0000200000000071820400000020418E0007A
:1037D00000000040201807000000404080F08040BA
:1037E00040000202010F01020200000000F0000090
:1037F00000000101011F01010100000000000000A4
:10380000000000B070000000000000000000000098
:1038100000000001010101010101000000000000A1
:103820000000003030000000000000000000806058
:103830001804006018060100000000E010080810DD
:10384000E000000F102020100F00001010F8000002
:1038500000000020203F2020000000700808088899
:103860007000003028242221300000300888884869
:1038700030000018202020110E000000C02010F899
:10388000000000070424243F240000F8088888086A
:1038900008000019212020110E0000E0108888186F
:1038A0000000000F112020110E0000380808C83851
:1038B00008000000003F0000000000708808088831
:1038C0007000001C222121221C0000E010080810BA
:1038D000E0000000312222110F00000000C0C000F3
:1038E00000000000003030000000000000C0C000F8
:1038F0000000000080B07000000000008040201038
:1039000008000001020408102000404040404040F0
:103910004000040404040404040000081020408053
:103920000000002010080402010000704808080888
:10393000F0000000003036010000C030C828E81058
:10394000E0000718272423140B000000C038E00013
:103950000000203C23020227382008F8888888705D
:103960000000203F202020110E00C0300808080869
:103970003800071820202010080008F80808081050
:10398000E000203F202020100F0008F88888E80879
:103990001000203F20202320180008F88888E8081D
:1039A0001000203F200003000000C0300808083845
:1039B000000007182020221E020008F80800000856
:1039C000F808203F210101213F20000808F80808DD
:1039D00000000020203F2020000000000808F80818
:1039E0000800C08080807F00000008F888C0281888
:1039F0000800203F20012638200008F808000000B9
:103A00000000203F20202020300008F8F800F8F8BF
:103A10000800203F003F003F200008F830C00008A9
:103A2000F808203F200007183F00E01008080810A1
:103A3000E0000F10202020100F0008F808080808E8
:103A4000F000203F210101010000E01008080810EB
:103A5000E0000F18242438504F0008F88888888820
:103A60007000203F2000030C3020007088080808F8
:103A700038000038202121221C00180808F8080806
:103A800018000000203F2000000008F8080000088F
:103A9000F808001F202020201F000878880000C898
:103AA0003808000007380E010000F80800F8000888
:103AB000F800033C0700073C030008186880806892
:103AC000180820302C03032C30200838C800C838D0
:103AD00008000000203F2000000010080808C83837
:103AE00008002038262120201800000000FE0202D5
:103AF00002000000007F40404000000C30C0000089
:103B00000000000000010638C00000020202FE00B2
:103B10000000004040407F00000000201008040822
:103B20001020000000000000000000000000000065
:103B30000000808080808080808000020408000077
:103B40000000000000000000000000008080808075
:103B500000000019242222223F2008F80080800063
:103B60000000003F112020110E0000000080808026
:103B70000000000E1120202011000000008080882D
:103B8000F800000E112020103F200000808080806F
:103B90000000001F222222221300008080F088886B
:103BA00088180020203F20200000000080808080B6
:103BB0008000006B94949493600008F800808080EB
:103BC0000000203F210000203F2000809898000046
:103BD00000000020203F2020000000000080989876
:103BE000000000C08080807F000008F80000808016
:103BF0008000203F24022D302000000808F800003B
:103C000000000020203F20200000808080808080F5
:103C10008000203F20003F20003F00808000808007
:103C2000000000203F2100203F2000008080808095
:103C30000000001F202020201F00808000808000C6
:103C4000000080FFA12020110E0000000080808075
:103C50008000000E112020A0FF80808080008080E6
:103C6000800020203F212000010000008080808013
:103C700080000033242424241900008080E0808008
:103C800000000000001F2020000080800000008055
:103C90008000001F202020103F20808080000080B6
:103CA000808000010E3008060100808000800080C6
:103CB00080800F300C030C300F000080800080806B
:103CC00080000020312E0E31200080808000008096
:103CD000808080818E701806010000808080808046
:103CE00080000021302C2221300000000000807C68
:103CF000020200000000003F404000000000FF0002
:103D0000000000000000FF0000000002027C8000B4
:103D100000000040403F0000000000804040800064
:103D20000080000000000001010000000000000011
:103D30000000002F000000000700070000147F149F
:103D40007F1400242A7F2A1200231308646200369D
:103D50004955225000000007000000001C224100CD
:103D6000000041221C000014083E08140008083E10
:103D70000808000000A0600000080808080800000B
:103D800060600000002010080402003E5149453EDA
:103D90000000427F400000426151494600214145F8
:103DA0004B31001814127F10002745454539003C5F
:103DB0004A4949300001710905030036494949362D
:103DC00000064949291E000036360000000056361C
:103DD0000000000814224100001414141414000000
:103DE00041221408000201510906003E4955592E8E
:103DF000007C1211127C007F49494936003E414146
:103E00004122007F4141221C007F49494941007FF6
:103E100009090901003E4149497A007F0808087FE5
:103E20000000417F4100002040413F01007F081415
:103E30002241007F40404040007F020C027F007F13
:103E40000408107F003E4141413E007F09090906F8
:103E5000003E4151215E007F09192946004649492B
:103E600049310001017F0101003F4040403F001FF8
:103E70002040201F003F4038403F00631408146377
:103E800000070870080700615149454300007F4161
:103E90004100000204081020000041417F0000049E
:103EA00002010204004040404040000001020400C2
:103EB000002054545478007F484444380038444427
:103EC000442000384444487F0038545454180008B3
:103ED0007E0901020018A4A4A47C007F08040478D1
:103EE0000000447D4000004080847D00007F102859
:103EF00044000000417F4000007C04180478007CEE
:103F00000804047800384444443800FC242424186D
:103F10000018242418FC007C0804040800485454A9
:103F2000542000043F444020003C4040207C001CC2
:103F30002040201C003C4030403C004428102844D5
:103F4000001CA0A0A07C004464544C440000087FE6
:103F500041000000007F00000000417F08000008D1
:103F600004081008A3AC00000000000000000000DE
:103F700000000000000000000058380000000000B1
:103F800000000000000000A1A300000000000000ED
:103F900000000000000000000000000018242418A9
:103FA00000000000000000000000C4E3000080608A
:103FB000F8074020180F08C808082818000100005A
:103FC000FF00100C0340807F0001061800BAC300F8
:103FD0001010F01F10F000808282E2928A8680002A
:103FE000402215081661000040807F00000000009C
:103FF000CAC000202020FE2020FF202020FF2020FB
:104000002020000000007F40404744444447404097
:10401000400000BDE700000000FE929292FE9292E6
:1040200092FE0000000008080484621E010001FEE8
:10403000020404080800000000FF01010131090921
:104040000909897101010101FFFF80808080808062
:104050009681808080808080FFFF01818181FD8941
:1040600091A1C1FD81818101FFFF808080809F88B7
:104070008482819F80808080FF0000009C40000837
:104080000000002094000000C40100083041000836
:1040900094000020240D0000E00100080000000052
:1040A000000000003333D33F000000000000000098
:1040B0000000000000000000000000000000000000
:1040C0000000000077BE7F3F0AD7A33C000000003D
:1040D00000000000000000000000000000000000E0
:1040E00000000000000000000000000000000000D0
:1040F0000000000000000000000000000000803F01
:1041000000000000000040400000803F0000000070
:10411000000000000000000000000000000000009F
:10412000000001020304010203040607080900005D
:0400000508000229C4
:00000001FF
